:020000040800F2
:100000000050002039550008795100087B51000844
:100010007D5100087F510008815100080000000058
:1000200000000000000000000000000083510008F4
:100030008551000800000000875100088951000820
:100040008155000881550008815500088155000838
:100050008155000881550008815500088155000828
:100060008155000881550008815500088155000818
:100070008155000881550008815500088155000808
:1000800081550008815500088155000881550008F8
:1000900081550008815500088155000881550008E8
:1000A00081550008815500088155000881550008D8
:1000B000815500088D5100088155000899510008AC
:1000C000A551000881550008815500088155000898
:1000D00081550008B151000881550008BD51000844
:1000E0008155000881550008815500080000000076
:1000F0000000000000000000000000000000000000
:0C01000000000000000000005FF808F1A3
:10010C0010B5054C237833B9044B13B10448AFF345
:10011C0000800123237010BD3C040020000000006F
:10012C000456000808B5034B1BB103490348AFF351
:10013C00008008BD000000004004002004560008A8
:10014C0038B50E4B054618784FF47A73B3FBF0F3C1
:10015C000B4A1068B0FBF3F000F0A0F8044658B955
:10016C000F2D09D8024629464FF0FF3000F054F805
:10017C00044B20461D6038BD012038BD0000002016
:10018C003804002004000020074A08B51368032037
:10019C0043F01003136000F02DF80020FFF7D0FFA0
:1001AC0004F0C2FF002008BD00200240034A044BAB
:1001BC0011681B780B441360704700BF5C0400206F
:1001CC0000000020014B1868704700BF5C04002041
:1001DC0038B50446FFF7F6FF0546631C1EBF044BFB
:1001EC001B78E418FFF7EEFF401B8442FAD838BDA9
:1001FC0000000020074A0002D36800F4E06023F4FA
:10020C00E0631B041B0C43F0BF6343F40033034354
:10021C00D360704700ED00E0174B30B5DC68C4F3D9
:10022C000224C4F10703251D042B28BF0423062D2B
:10023C004FF0010598BF002405FA03F303F1FF33D7
:10024C0088BF033C1940A14005FA04F4013C22404C
:10025C00002842EA01024FEA0212A9BF00F16040F5
:10026C00064BD2B200F56140BBBF00F00F00D2B21A
:10027C0080F800231A5430BD00ED00E014ED00E0CE
:10028C00002808DB0123420900F01F0003FA00F0EC
:10029C00014B43F82200704700E100E00138B0F157
:1002AC00807F0AD2F021064B064A586082F8231050
:1002BC000020072298601A6070470120704700BF29
:1002CC0010E000E000ED00E090F8213010B5022BBA
:1002DC0003D004238363012010BD03681A6822F045
:1002EC000E021A601A6822F001021A60184A934230
:1002FC001FD0143293421ED0143293421DD01432AC
:10030C0093421DD0143293421DD0143293420CBF31
:10031C004FF480134FF080730E4A00245360012376
:10032C0080F82130436B80F820407BB19847204601
:10033C0010BD0123F0E71023EEE74FF48073EBE7D9
:10034C004FF48053E8E74FF48033E5E7184610BDCF
:10035C00080002400000024090F8210070470000A5
:10036C002DE9F74F00242646664BDFF8A8E1DFF8AD
:10037C00A8C10A6832FA06F502D103B0BDE8F08FC5
:10038C004FF0010808FA06F802EA080290457FD1FE
:10039C004D68122D00F0AA8000F28380022D00F02F
:1003AC00A28077D8002D00F08980012D00F0998073
:1003BC004FF00F09FF2A93BF824606F18045083D96
:1003CC00D0F800B092BFB500D0F804B0AD0009FA77
:1003DC0005F82BEA080804FA05F588BF00F1040AB1
:1003EC0048EA0505CAF80050D1F804A01AF0805F5D
:1003FC004ED0454D444FAD6926F0030845F001053C
:10040C00BD61BD6908F1804805F00105019508F54D
:10041C00803806F0030B019D4FEA8B0BD8F808507F
:10042C0009FA0BF925EA0909384DA84263D005F5FC
:10043C008065A84261D005F58065A8425FD005F5BE
:10044C008065A8420CBF0325042505FA0BF545EA87
:10045C000905C8F808501D681AF4803F14BF1543ED
:10046C0095431D605D681AF4003F14BF1543954316
:10047C005D609D681AF4801F14BF154395439D6001
:10048C00DD681AF4001F14BF2A4325EA0202DA6061
:10049C0001366EE7032D22D0112D89D1CC6804349E
:1004AC0086E71B4FBD4209D012D8DFF870904D453E
:1004BC0004D009F580394D457FF47AAF8C68C4B10E
:1004CC00012C0CBFC0F81080C0F8148008246FE712
:1004DC007545F3D06545F1D0DFF84490EBE7002487
:1004EC0066E7CC6864E7CC68083461E7CC680C3408
:1004FC005EE704245CE70025A7E70125A5E70225B4
:10050C00A3E700BF000401400010024000080140B6
:10051C0000002110000031100000321000001110FA
:10052C00000022100AB1016170470904FBE7016861
:10053C0000224B6913F4806310D06FF480634B611D
:10054C002023026380F83D3080F83E20036C80F855
:10055C003C2043F0040303640120704718467047A5
:10056C002DE9F843044617469946C1F307488EB265
:10057C002568B8F1010F0CBF6B69AB6936EA030350
:10058C0014BF0120002008B9BDE8F8836B695A0537
:10059C0016D52B68202243F400732B606FF4806314
:1005AC006B610023236384F83D2084F83E30226C79
:1005BC0042F00402226484F83C300120BDE8F88348
:1005CC007B1CD5D0FFF7FEFDA0EB0900874201D3C1
:1005DC00002FCDD100232022236384F83D2084F802
:1005EC003E30226C42F02002E4E770B504460D4622
:1005FC00164623685B695B0701D5002070BD204659
:10060C00FFF795FFA8B96A1CF3D0FFF7DBFD801B41
:10061C00854201D3002DECD100232022236384F8E2
:10062C003D2084F83E30226C84F83C3042F02002AD
:10063C002264012070BD70B504460D461646206834
:10064C00436913F0400301D0002070BD4269D2060B
:10065C000ED56FF0100242612022236384F83D20F6
:10066C0084F83E30226C226484F83C30012070BD4A
:10067C00FFF7A8FD801BA84201D8002DDFD1002375
:10068C002022236384F83D2084F83E30226C42F013
:10069C002002E8E72DE9F843044690461F46089EE1
:1006AC00C1F307498DB22368B9F1010F0CBF5B6927
:1006BC009B6935EA03030CBF01230023434502D099
:1006CC000020BDE8F8837B1CEDD0FFF77BFD801B81
:1006DC00874201D3002FE6D100232022236384F824
:1006EC003D2084F83E30226C84F83C3042F02002ED
:1006FC0022640120BDE8F88370B504460D46164609
:10070C0023685B691B0601D5002070BD2046FFF7EE
:10071C000EFFA8B96A1CF3D0FFF754FD801B85426D
:10072C0001D3002DECD100232022236384F83D203B
:10073C0084F83E30226C84F83C3042F02002226473
:10074C00012070BD70B5044608B9012070BD90F849
:10075C003D3003F0FF021BB980F83C2004F07AFB1B
:10076C002423226884F83D30136823F001031360BE
:10077C0001F0F8FA6568414B9D424DD8404B9842C8
:10078C00E3D940492268B0FBF1F1536823F03F03F1
:10079C000B435360136A23F03F0301311943116279
:1007AC00D169364B21F44F419D4221F0FF0100F1FC
:1007BC00FF3048D86D00B0FBF5F00130C0F30B03EF
:1007CC00042B38BF04230B43D3611168206AE369FF
:1007DC0021F0C00103430B4313609168E068236967
:1007EC0021F40341034321F0FF010B439360D168D3
:1007FC00A069636921F0FF0103430B43D3601368C5
:10080C00002043F0010313602023206484F83D3062
:10081C00206384F83E0070BD1B4B984295D9194E4D
:10082C004FF49671B0FBF6F622687143536823F0CF
:10083C003F0333434FF47A765360136AB1FBF6F1FE
:10084C0023F03F03A9E7A36853B905EB4503B0FBBD
:10085C00F3F0431CC3F30B036BB143F40043B2E757
:10086C0019236B43B0FBF3F0431CC3F30B0313B11D
:10087C0043F44043A7E70123A5E700BFA08601008E
:10088C007F841E0040420F00FF083D002DE9FF4110
:10089C0004461F460D469046FFF794FC94F83D30F5
:1008AC000646202B04D00225284604B0BDE8F08172
:1008BC0000901923012258492046FFF7EBFE00282F
:1008CC00F1D194F83C30012BEDD0012384F83C306D
:1008DC0023681A68D2075EBF1A6842F001021A60D8
:1008EC001A6822F400621A60212284F83D2010223A
:1008FC0084F83E20002222646785628DC4F824802F
:10090C002285464AE262E26A082A04D0012A02D011
:10091C0012F5803F04D11A6842F480721A6002E02A
:10092C00226B122AF7D000960A9B00224FF001117D
:10093C002046FFF7AFFE08B10125B5E72369226811
:10094C00B3F5804F13D105F0FE05156133460A9AB5
:10095C0033492046FFF704FE05460028ECD12368F6
:10096C0003905A6903929B690393039B44E0EB1138
:10097C0003F0060343F0F00313612A4933460A9A45
:10098C002046FFF7EDFD0028D6D12368EDB21D619E
:10099C00DCE732460A992046FFF7AEFE40B1236CE5
:1009AC00042B01BF2268136843F400731360C3E780
:1009BC00636A20681A4612F8011B01616262628D3B
:1009CC00013A92B26285228D4769511E89B27F0726
:1009DC0021850AD549B15978023301616362638D6F
:1009EC00023A013B9BB26385228532460A99204626
:1009FC00FFF7FBFD0028D2D1238D002BC9D1216834
:100A0C000A6842F400720A60202284F83C3084F8B0
:100A1C003D2084F83E3047E7020010000000FFFF45
:100A2C0002000100080001002DE9F043044689B0E2
:100A3C0098460F469146109EFFF7C4FB94F83D3044
:100A4C000546202B04D00227384609B0BDE8F083B8
:100A5C000090192301229C492046FFF71BFE002819
:100A6C00F1D194F83C30012BEDD0012384F83C30CB
:100A7C0023681A68D0075EBF1A6842F001021A6038
:100A8C001A6822F400621A60222284F83D20102297
:100A9C0084F83E2000222264A4F82A80628DC4F8D7
:100AAC0024902285894AE262E26A1968082A41F494
:100ABC008061196004D0012A02D012F5803F04D164
:100ACC001A6842F480721A6002E0226B112AF7D085
:100ADC000095334600224FF001112046FFF7DAFD56
:100AEC0008B10127B0E72369B3F5804F236843D1E0
:100AFC0047F00107FFB21F612B463246744920466E
:100B0C00FFF72EFD07460028EBD1228D2368002A23
:100B1C0066D0012A77D11A6822F480621A6072B604
:100B2C00236804975A6904929A690492049A1A6881
:100B3C0042F400721A6062B6DFF89C81238D002BA0
:100B4C0058D0032B00F2CA80012B78D12A463146AB
:100B5C002046FFF770FD0028C3D12268636A126932
:100B6C001A70636A01336362238D013B2385638DA5
:100B7C00013B9BB26385E1E74FEAE71808F00608F2
:100B8C0048F0F0021A6153492B4632462046FFF7D3
:100B9C00E7FC0028A5D12368FFB21F6132462B4623
:100BAC004B492046FFF7DCFC0246002899D123680C
:100BBC000790596920460791996907910799196817
:100BCC0041F480711960009533464FF00111FFF725
:100BDC0061FD002885D1226848F0F10313618BE791
:100BEC0003975A6903929A690392039A1A6842F41A
:100BFC0000721A60202384F83D30002384F83E30C4
:100C0C0084F83C3020E7022A1A680ED142F40062C4
:100C1C001A6072B6236805975A6905929A6905920B
:100C2C00059A1A6822F4806284E742F480621A60A2
:100C3C0006975A6906929B690693069B7CE7022BE2
:100C4C00009533464FF000024146204619D1FFF77C
:100C5C0021FD00287FF445AF72B623681A6842F470
:100C6C0000721A601B69626A1370636A01336362F3
:100C7C00238D013B2385638D013B9BB2638562B65B
:100C8C006BE7FFF707FD024600287FF42AAF2168C7
:100C9C000B6823F480630B6072B62168636A096980
:100CAC0020461970636A009501336362238D4146B7
:100CBC00013B2385638D013B9BB263853346FFF774
:100CCC00E9FC0028C9D00CE7020010000000FFFF6F
:100CDC000200010008000100040001002A46314610
:100CEC002046FFF7A8FC00287FF4FBAE2268636A5D
:100CFC0012691A70626A531C6362238D013B23854F
:100D0C00638D013B9BB263852368596949077FF565
:100D1C0015AF1B69537024E77047704770477047D5
:100D2C007047704770477047704770470023406AA0
:100D3C0070B5026890F83D101468466B856B24F40E
:100D4C008064B362AB62146043851468736324F0EF
:100D5C0001046B63146090F83D40C9B2602C08D15B
:100D6C00202280F83D2080F83E300364FFF7DDFF41
:100D7C0070BD01F0280128290DD1146844F001043C
:100D8C001460146844F480641460036380F83D10AC
:100D9C00FFF7CAFF70BD202280F83D2080F83E305E
:100DAC00F6E7000090F83D2090F83E3010B5102B7F
:100DBC000446D2B2036805D1222A02BF196821F475
:100DCC000061196002F0280128293AD1002222631F
:100DDC0084F83D105A6812F4006259D05A68606B5E
:100DEC0022F400625A6090F82130012B3C4B35D034
:100DFC004363FFF769FA50B12268606B136823F004
:100E0C0001031360202384F83D30436B984794F81A
:100E1C003D30226CDBB2520712D5282B10D1226840
:100E2C002046536823F4E06353602E4B2022E36288
:100E3C000023236384F83D2084F83E30FFF771FFD4
:100E4C0010BD5968090504D4602A1CBF202284F8FF
:100E5C003D200022226384F83E20BBE7A06B436355
:100E6C00FFF732FA0028D2D023685A69520605D50A
:100E7C001B69626A1370636A013363622268A06B38
:100E8C00136823F001031360202384F83D30BCE782
:100E9C0094F83D10602915D1202184F83D1022646E
:100EAC005A69500605D51B69626A1370636A01336F
:100EBC00636222682046136823F001031360FFF776
:100ECC0034FFA4E75A69510605D51B69626A137091
:100EDC00636A013363622046FFF726FF97E700BF82
:100EEC00390D00080000FFFF036830B55A68C56A69
:100EFC0090F83E100446C9B290F83D0010298DB010
:100F0C00C0B202D0402940F0BE829869596911F0F4
:100F1C00010F07D1B5F52A0F02D0B5F12A4F52D1E6
:100F2C000DB030BD95054ED5E26AB2F52A0F0CD145
:100F3C000122E26294F83E20402A11D1226D52B96E
:100F4C00626C02F0FE021A61EAE7E26AB2F12A4F21
:100F5C00F0D10822EDE7626C42F00102D2B2F2E766
:100F6C002269B2F5804F1BD194F83D20212A626C86
:100F7C0012D102F0FE021A61626B12B9A16B002948
:100F8C00CED0926A1AB9A26B926A002AC8D05A685B
:100F9C0042F400625A60C3E742F00102D2B2EAE7BF
:100FAC00226D32B9626CD21102F0060242F0F002EC
:100FBC00C9E7226D012AB3D1626CD21102F006028C
:100FCC0042F0F102BFE70D0703D5950501D5626C20
:100FDC00E4E78D0740F1EA80950540F1E78094F84D
:100FEC003E10E26A256B94F83D00C9B2222840F00D
:100FFC00D580206D40B9402906D100905A690092E5
:10100C009B690093009B8BE7216D81B92069B0F53A
:10101C00404F0CD101915A6901929A690192019A3F
:10102C001A6842F480721A60236D013328E0618DD6
:10103C0089B251B902915A6902929A690292029A42
:10104C001A6842F400721A6019E0618D89B20129A4
:10105C004AD112F5803F1CD11A6822F480621A60C2
:10106C005A6812F400620DD01A6822F480621A6079
:10107C00002203925A6903929B690393039B0023FA
:10108C0023654DE704925A6904929A690492049A72
:10109C00D6E7082A1CD0202A1AD0122D0DD1012AED
:1010AC0016D11A6822F480621A60002205925A69DD
:1010BC0005929B690593059BE1E7102AF1D89249AB
:1010CC0021FA02F2D207ECD51A6842F48062EBE7FF
:1010DC001A6822F480621A60002206925A690692FB
:1010EC009A690692069AABE7618D89B2022935D1CD
:1010FC00102A05D88449D140C94311F0010122D0EE
:10110C00196841F400611960002107915969079130
:10111C00996907910799196821F4806119605968D8
:10112C000D05ACD512F5803F08D0511E1F2997BF75
:10113C00764A0122CA40D243D007A0D45A6842F45E
:10114C0080525A609BE7186840F4806018600891E0
:10115C0059690891996908910899E0E7196841F46F
:10116C00806119605968090510D512F5803F09D0C6
:10117C00013A1F2A97BF6549012221FA02F2D24394
:10118C00D20703D45A6842F480525A600022099262
:10119C005A6909929B690993099B70E700220A928C
:1011AC005A690A929B690A930A9BB9E610F0040FDC
:1011BC00586800F0AD8005053FF5B2AE11F0800F18
:1011CC0001F0040169D0500567D5002965D194F868
:1011DC003D20258D94F83E10D2B2C9B2E06AC5B953
:1011EC00212A18D1082878D0202876D010F5803FF5
:1011FC0073D05A6822F4E0625A60112323630023EF
:10120C0084F83E302023204684F83D30FFF784FDDF
:10121C0086E6212A05D040297FF482AE222A7FF46B
:10122C007FAE628D92B21AB95A6822F48062B1E62E
:10123C0094F83E20402A26D1226D62B9E26C012A34
:10124C00A26C04D1D2B21A61236D023318E7C2F337
:10125C0007221A61E8E6226D012A02D1A26CD2B2F1
:10126C00F7E7226D022A7FF45BAE94F83D20222A28
:10127C0004D11A6842F480721A6051E694F83D2049
:10128C00212A7FF44DAE626A12F8011B1961626269
:10129C00638D013B9BB2638542E600293FF440AE6F
:1012AC0092057FF53DAEE16A94F83D20212A7FF44A
:1012BC0037AE628D92B2002AE5D108290DD02029D3
:1012CC000BD011F5803F08D0596821F4E0615960CA
:1012DC001123236384F83E2094E75A68204622F4B5
:1012EC00E0625A601A6842F400721A6000232022ED
:1012FC00236384F83D2094F83E2084F83E30402A45
:10130C0084D1FFF70FFD0BE61400010081800080F3
:10131C0005053FF505AE11F0400F01F0040148D072
:10132C00500546D5002944D194F83D20222A7FF45B
:10133C00F7AD628D92B2032A14D91B69626A1370DD
:10134C00636A01336362638D013B9BB26385638D7A
:10135C009BB2032B7FF4E4AD2268536823F48063C3
:10136C005360DDE5E06A02283FF4DAAD012A3FF66E
:10137C00D7AD1A6822F480621A605A6822F4E062CF
:10138C005A601B69626A1370636A01336362638D0E
:10139C00013B9BB26385202384F83D3094F83E30AA
:1013AC0084F83E10402B68D121632046FFF7BBFC2C
:1013BC00B6E500293FF4B4AD92057FF5B1ADE26A14
:1013CC00618D89B20429616A09D15A6822F480625C
:1013DC005A601B690B70636A0133636258E7608D56
:1013EC0080B203280CD15868042A20F4806058601D
:1013FC00EFD0022AEDD01A6822F480621A60E8E776
:10140C00608D80B20228E4D1012A01D0102A28D1A3
:10141C001A6822F480621A601B690B70626A531C92
:10142C006362638D013B9BB2638523681B695370B8
:10143C00636A226801336362638D013B9BB26385EF
:10144C00536823F440735360202384F83D3094F8A0
:10145C003E30402B4FF0000384F83E300DD1236317
:10146C00A3E7042A01D0022A03D11A6842F480624D
:10147C00D1E71A6842F40072CDE7122320462363A9
:10148C00FFF74BFC4CE5216C21B30025596911F099
:10149C00020F29D012F4007F26D0226C02B19D6974
:1014AC0094F83D2002F02802282A16D15A6885F0BB
:1014BC00040122F480625A602B064FF00003C1F342
:1014CC00800154BFA289228B84F83C302046FFF760
:1014DC0027FC25E59D695969D9E76FF002025A612D
:1014EC00002384F83C301BE5CD0640F1AF80950518
:1014FC0040F1AC8094F83D505A68EDB222F4E062B1
:10150C005A6000220B925A690B921A6842F001023F
:10151C001A600B9A1A6822F480621A605A681105D4
:10152C0020D505F0F702222A48D1A06B0268526838
:10153C0092B26285628D92B21AB1226C42F00402B0
:10154C0022645A6822F400625A60FEF705FF0128F3
:10155C0008D0A06B784B4363FEF7B6FE10B1A06BBE
:10156C00436B9847638D9BB213B323685A69520738
:10157C0009D51B69626A1370636A01336362638DF8
:10158C00013B9BB2638523685A69500609D51B69D8
:10159C00626A1370636A01336362638D013B9BB2B1
:1015AC006385638D9BB21BB1236C43F004032364EE
:1015BC00236C03B32046FFF7F5FBB1E4606B0268C4
:1015CC00526892B26285628D92B21AB1226C42F06C
:1015DC00040222645A6822F400625A60FEF7BCFED0
:1015EC000128BFD0606B544B4363FEF76DFE00289F
:1015FC00B8D0606BB4E72A2D06D12363282320468C
:10160C0084F83D30FFF78BFB94F83D30282B0CD140
:10161C004A4B2022E36200232046236384F83D20BA
:10162C0084F83E30FFF77DFB7AE4236B222B02D04B
:10163C00222D7FF475AC00232022236384F83D20F7
:10164C0084F83E302046FFF76AFB69E400F0F700AF
:10165C00212801F0040535D1090627D5510525D5DA
:10166C0025BB94F83D10628DC9B292B2002A3FF4AA
:10167C0057AC626A12F8015B1D616262628D013ABD
:10168C0092B26285628D92B2002A7FF449AC29290C
:10169C007FF446AC5A6822F480625A602823206397
:1016AC0084F83D302046FFF739FB39E4002D3FF438
:1016BC0037AC95057FF534AC628D92B2002A7FF47D
:1016CC00E2AD2DE4480627D5510525D525BB94F868
:1016DC003D20618DD2B289B200293FF421AC1B6947
:1016EC00616A0B70636A01336362638D013B9BB269
:1016FC006385638D9BB2002B7FF412AC2A2A7FF496
:10170C000FAC2268536823F4806353602223236355
:10171C00282384F83D3095E7002D3FF401AC920569
:10172C007FF5FEAB628D92B2002A3FF4F9AB626A90
:10173C001B6913704FE600BF390D00080000FFFF56
:10174C00F8B5036804465F695E6817F480750AD0C3
:10175C0016F4807507D06FF4807201255A611A68EF
:10176C0042F400421A60B90506D5F20542BF6FF487
:10177C00007245F002055A61780537D5F10535D56B
:10178C0094F83EE0618D94F83D20BEF1200F89B2B3
:10179C00D2B2206B5AD1002958D102F0F70121297D
:1017AC0003D0282A52D1212850D194F83D20E16A47
:1017BC00D2B2082901D020292AD1282A28D12C4A92
:1017CC002046E2625A6822F4E0625A606FF480624A
:1017DC005A611A6822F480621A6000232022236363
:1017EC0084F83D2084F83E30FFF79BFA3A053BD550
:1017FC00F30539D56FF40062236845F008055A618A
:10180C00236C20461D432564BDE8F840FFF7CABA97
:10181C00212A17D116492046E1622263202284F83E
:10182C003D20002284F83E205A6822F4E0625A607F
:10183C006FF480625A611A6822F480621A60FFF7B2
:10184C006DFAD3E76FF480625A61CFE76FF4806270
:10185C005A6194F83E2045F00405102A02BF1A681C
:10186C0042F400721A60C1E7002DC9D1F8BD00BF67
:10187C000000FFFF2DE9F341054608B901203CE0CB
:10188C000368DB0710D42B689F075DD42B681907FE
:10189C0000F194802B685A0700F1BE80E86900289B
:1018AC0040F02C81002028E08F4C636803F00C037F
:1018BC00042B07D0636803F00C03082B09D1636871
:1018CC00DE0306D523689C03DDD56B68002BDAD1CB
:1018DC00D4E76B68B3F5803F12D1236843F48033AF
:1018EC002360FEF76FFC064623689803CBD4FEF703
:1018FC0069FC801B6428F7D9032002B0BDE8F08195
:10190C009BB9236823F480332360236823F480235A
:10191C002360FEF757FC064623689903B3D5FEF700
:10192C0051FC801B6428F7D9E6E7B3F5A02F236898
:10193C0003D143F480232360CFE723F48033236067
:10194C00236823F48023CBE7674C636813F00C0FF8
:10195C0007D0636803F00C03082B10D16368DA031B
:10196C000DD423689B0702D52B69012B86D12368E4
:10197C006A6923F0F80343EAC203236086E72A6905
:10198C005A4B6AB101221A60FEF71CFC064623680A
:10199C009F07ECD4FEF716FC801B0228F7D9ABE7A7
:1019AC001A60FEF70FFC0646236898077FF56EAFAA
:1019BC00FEF708FC801B0228F6D99DE7AA694A4C61
:1019CC004B4BDAB101221A60FEF7FCFB0646636A48
:1019DC009B070DD54FF4FA52464B1B68B3FBF2F341
:1019EC00019300BF019B5A1E0192002BF9D151E7C4
:1019FC00FEF7E8FB801B0228E9D97DE71A60FEF7A9
:101A0C00E1FB0646636A9F077FF544AFFEF7DAFBFE
:101A1C00801B0228F6D96FE7334CE369D80024D435
:101A2C000127E36943F08053E361E36903F08053DA
:101A3C000093009B304E3368D90518D5EB68012B09
:101A4C0026D1236A43F001032362FEF7BBFB41F26C
:101A5C0088368046236A9B073FD5002F3FF41EAF84
:101A6C00E36923F08053E36118E70027E2E733686A
:101A7C0043F480733360FEF7A5FB80463368DA05C8
:101A8C00DCD4FEF79FFBA0EB08006428F6D933E703
:101A9C00ABB9236A41F2883823F001032362236A2D
:101AAC0023F004032362FEF78DFB0646236A980796
:101ABC00D3D5FEF787FB801B4045F7D91CE7052BD8
:101ACC00236A03D143F004032362BAE723F0010332
:101ADC002362236A23F00403B6E7FEF773FBA0EB43
:101AEC000800B042B6D907E700100240000042429D
:101AFC008004424238040020007000402A4B5A688F
:101B0C001C4602F00C02082A3DD00023274E022866
:101B1C0033602BD1FEF756FB0746236899011FD47F
:101B2C002B6AB3F5803F05D16268A96822F40032B4
:101B3C000A436260696A62680B4322F474121343AD
:101B4C00636001233360FEF73DFB054623689A0171
:101B5C003FF5A8AEFEF736FB401B0228F6D9CBE6C4
:101B6C00FEF730FBC01B0228D7D9C5E6FEF72AFBCF
:101B7C00054623689B017FF595AEFEF723FB401BC2
:101B8C000228F6D9B8E601283FF4B7AE58682B6A9C
:101B9C0000F480329A427FF471AE6B6A00F47010DC
:101BAC00C01A18BF0120A8E6001002406000424293
:101BBC0030B5194B87B002AC03F1100522461868FA
:101BCC005968083303C2AB421446F7D101238DF890
:101BDC000430022311498DF805304B6803F00C02D8
:101BEC00082A17D1C3F3834206A80244DB0312F878
:101BFC00102C0CD54B680A48C3F34043504306AA3B
:101C0C00134413F8143CB0FBF3F007B030BD054897
:101C1C005043FAE70248F8E71C560008001002404F
:101C2C0000127A0000093D002DE9F0410D460446F2
:101C3C0010B90120BDE8F081454A136803F0070391
:101C4C008B4229D321688E0731D4CA0744D4404A29
:101C5C00136803F007039D4267D322683D4D12F0D1
:101C6C00040F6ED1130706D56B68226923F46053F9
:101C7C0043EAC2036B60FFF79BFF6B68364AC3F302
:101C8C000313D35CD840354B1860354B1868FEF7FE
:101C9C0057FA0020BDE8F081136823F007030B43CB
:101CAC001360136803F007039942C2D1CAE7294BAA
:101CBC0011F0040F1EBF5A6842F4E0625A60080724
:101CCC0042BF5A6842F460525A605A68A06822F0C7
:101CDC00F00202435A60B8E762681E4E012A33686C
:101CEC001BD113F4003FA4D0736841F2883823F061
:101CFC00030313437360FEF765FA07467368626863
:101D0C0003F00C03B3EB820FA1D0FEF75BFAC01B00
:101D1C004045F3D90320BDE8F081022A02D113F02B
:101D2C00007FE0E713F0020FDDE7136823F00703F1
:101D3C002B431360136803F007039D427FF479AFC4
:101D4C008BE76B68E16823F4E0630B436B6089E716
:101D5C0000200240001002405256000838040020B7
:101D6C0004000020044B054A5B68C3F30223D35CD8
:101D7C00034A1068D84070470010024062560008B1
:101D8C0038040020044B054A5B68C3F3C223D35CC0
:101D9C00034A1068D8407047001002406256000891
:101DAC0038040020036A70B523F001030362036A50
:101DBC00446882690D6822F073022A438D6823F00F
:101DCC0002032B430A4DA8420BD1CD6823F0080324
:101DDC002B438E694D6924F44074354323F004037E
:101DEC002C43446082614A684263036270BD00BF49
:101DFC00002C0140036A70B523F480730362036AFC
:101E0C004468C2690D6822F073022A438D6823F47A
:101E1C00007343EA05230B4DA8420DD1CD6823F482
:101E2C00006343EA05238E694D6924F4405435431D
:101E3C0023F4806344EA05144460C2614A68C263B7
:101E4C00036270BD002C0140036A30B523F480534B
:101E5C000362036A4468C2690D6822F4E64242EAEE
:101E6C0005228D6823F4005343EA0533064DA8423E
:101E7C0002BF4D6924F4804444EA85144460C26175
:101E8C004A680264036230BD002C01407047704701
:101E9C007047704770477047036810B51A6904465D
:101EAC0091070ED5DA6892070BD56FF002021A6112
:101EBC0001229B6902779B0777D0FFF7EAFF00238B
:101ECC00237723681A69500710D5DA6851070DD5A6
:101EDC006FF004021A6102229B69227713F4407F8F
:101EEC00204668D0FFF7D5FF0023237723681A69B3
:101EFC0012070FD5DA6810070CD56FF008021A61BB
:101F0C000422DB692277990720465AD0FFF7C1FFDC
:101F1C000023237723681A69D20610D5DA68D00615
:101F2C000DD56FF010021A610822DB69227713F4C9
:101F3C00407F20464BD0FFF7ACFF0023237723686C
:101F4C001A69D10708D5DA68D20705D56FF00102F6
:101F5C0020461A61FFF79BFF23681A69100608D503
:101F6C00DA68110605D56FF0800220461A6100F080
:101F7C00ECF923681A69520608D5DA68500605D5BB
:101F8C006FF0400220461A61FFF785FF23681A693B
:101F9C00910622D5DA6892061FD56FF020022046F2
:101FAC00BDE810401A6100F0CFB9FFF771FF204671
:101FBC00FFF770FF83E7FFF76BFF2046FFF76AFF21
:101FCC0092E7FFF765FF2046FFF764FFA0E7FFF7F6
:101FDC005FFF2046FFF75EFFAFE710BD1A4A0368AC
:101FEC0090420AD0B0F1804F07D0A2F594329042C3
:101FFC0003D002F58062904215D14A6823F0700339
:10200C001343114A90420AD0B0F1804F07D0A2F589
:10201C009432904203D002F58062904203D1CA6898
:10202C0023F4407313434A6923F080031343036082
:10203C008B68C3620B688362034B984204BF0B69C5
:10204C000363012343617047002C014010B5044623
:10205C00A0B190F83D3003F0FF021BB980F83C2092
:10206C0003F006F90223206884F83D30211DFFF7A8
:10207C00B5FF0123002084F83D3010BD012010BDB8
:10208C0010B50446A0B190F83D3003F0FF021BB927
:10209C0080F83C20FFF7FAFE0223206884F83D30DC
:1020AC00211DFFF79BFF0123002084F83D3010BD5C
:1020BC00012010BD036A70B523F010030362036A9C
:1020CC00446882690D6822F4E64242EA05228D6872
:1020DC0023F0200343EA05130B4DA8420DD1CD6824
:1020EC0023F0800343EA05138E694D6924F44064A0
:1020FC00354323F0400344EA8504446082614A6816
:10210C008263036270BD00BF002C014038B590F8AB
:10211C003C300446012B4FF0020025D0012384F8FB
:10212C003D0084F83C300C2A18D8DFE802F0071781
:10213C0017171E1717172F17171740002068FFF7D0
:10214C0031FE236809699A6942F008029A619A691A
:10215C0022F004029A619A690A439A6101230020D1
:10216C0084F83D3084F83C0038BD2068FFF7A2FFAE
:10217C00236809699A6942F400629A619A6922F4A7
:10218C0080629A619A6942EA0122E6E72068FFF7C9
:10219C0031FE23680969DA6942F00802DA61DA690A
:1021AC0022F00402DA61DA690A43DA61D6E72068C0
:1021BC00FFF74AFE23680969DA6942F40062DA61C2
:1021CC00DA6922F48062DA61DA6942EA0122ECE728
:1021DC0010B584680A4324F47F4442EA0323234362
:1021EC00836010BD90F83C3070B5012B04464FF065
:1021FC00020019D0012384F83D00206884F83C309B
:10220C00836823F47F4323F0770383600B68402BB0
:10221C0065D015D8102B0CD007D853B10123002052
:10222C0084F83D3084F83C0070BD202B01D0302B5D
:10223C00F4D1826843F0070322F0700213431AE0D2
:10224C00602B34D019D8502BE8D14A68CE68016A7B
:10225C00056A21F00A0125F00105056283690A432C
:10226C0023F0F00343EA061383610262836823F0D0
:10227C00700343F057038360D0E7702B0CD0B3F599
:10228C00005FCBD1CB684A688968FFF7A1FF226851
:10229C00936843F4804308E0CB684A688968FFF789
:1022AC0097FF2268936843F077039360B6E74D6815
:1022BC00CE68016A21F0100101628269036A22F47E
:1022CC00704223F0A00343EA051342EA063282610E
:1022DC000362836823F0700343F06703CBE74A681B
:1022EC00CE68016A056A21F00A0125F00105056234
:1022FC0083690A4323F0F00343EA06138361026205
:10230C00836823F0700343F04703B4E790F83C3044
:10231C0030B5012B4FF0020314D0046880F83D3027
:10232C006268A3680D68496822F0700223F080038C
:10233C000B432A436260A360012380F83D300023E5
:10234C0080F83C30184630BD704770470368DA6837
:10235C0022F49072DA605A6922F001025A61202349
:10236C0080F83A307047000038B505460368C168FC
:10237C001A69192422F440520A431A6182680069CE
:10238C00D9680243686921F4B05121F00C01024371
:10239C000A43DA605A69A96922F440720A435A6105
:1023AC000D4A934214D1FFF7EDFC60436C68642234
:1023BC00A400B0FBF4F0B0FBF2F402FB14031B011D
:1023CC003233B3FBF2F3296803EB04138B6038BD93
:1023DC00FFF7C8FCE9E700BF0038014010B5044620
:1023EC0040B390F8393003F0FF021BB980F8382065
:1023FC0003F020F82423226884F83930D36820466F
:10240C0023F40053D360FFF7AFFF236800201A6951
:10241C0022F490421A615A6922F02A025A61DA684F
:10242C0042F40052DA602023E06384F8393084F8F7
:10243C003A3010BD012010BD7047704790F83A300B
:10244C0010B5222B36D183680169B3F5805F026821
:10245C00836A23D15268E9B9C2F3080223F8022B2C
:10246C008362C48D013CA4B2C4858CB90368DA685C
:10247C0022F02002DA60DA6822F48072DA605A699B
:10248C0022F001025A61202380F83A30FFF7D5FF81
:10249C00002010BDD2B223F8012BE1E721B9591C61
:1024AC00526881621A70DCE75268591C816202F032
:1024BC007F02F7E7022010BD70470000036870B57B
:1024CC001A6804461607D9685D6907D196065AD56D
:1024DC008D0658D5BDE87040FFF7B0BF15F001056B
:1024EC0002D111F4907F4ED0D30705D5CE0542BF53
:1024FC00E36B43F00103E363500704D51DB1E36BB9
:10250C0043F00203E363930704D51DB1E36B43F07F
:10251C000403E363160704D51DB1E36B43F0080312
:10252C00E363E36B002B66D0950604D5880602D5D1
:10253C002046FFF783FF236820465D69E26B110795
:10254C0002D415F040051AD0FFF700FF23685A6932
:10255C00520610D55A69606B22F040025A6150B194
:10256C00254B4363FDF7B0FE002844D0606BBDE8FB
:10257C007040436B18472046FFF79EFF70BDFFF776
:10258C009BFFE56370BD160627D50D0625D594F87F
:10259C003920212A2FD1A268B2F5805F226A17D187
:1025AC001188C1F308015960216979B9023222629C
:1025BC00E28C013A92B2E284EAB9DA6822F0800243
:1025CC00DA60DA6842F04002DA6070BD0132EEE7A0
:1025DC00511C216212785A60EAE750060BD54A0664
:1025EC0009D5DA68204622F04002DA60202384F80C
:1025FC003930FFF721FF70BD0926000808B500230C
:10260C00406AC385C384FFF757FF08BD37B5002266
:10261C00BF21044602F0FEFAE8B1204602F08EFB20
:10262C000122BF21204602F0F5FA054650B90DF102
:10263C000702C021204602F00FFB9DF8073005462B
:10264C00002BF4D0204602F079FB0DB984F83251FE
:10265C00284603B030BD0DF10702C021204602F020
:10266C00FBFA9DF80730002BF5D1D6E7152907D8D2
:10267C000122054B8A40134013B1017400207047AE
:10268C006FF00700704700BF0B00300010B50A4612
:10269C000C46092102F0E0FA18B9237803F0010383
:1026AC00237010BD01F0AFBE01F089BD01F092BEE8
:1026BC000023F7B5174602AA0C4602F8013D01218A
:1026CC00064602F0C9FA0546D8B9012F9DF8073025
:1026DC0026D1042C3AD8DFE804F003171A1D200089
:1026EC0043F01004A3420CD022460121304602F0E4
:1026FC0091FA054628B986F8304171693046FFF7E2
:10270C00D1FF284603B0F0BD43F02804EAE743F0BC
:10271C000404E7E743F04004E4E743F08004E1E716
:10272C00042C13D8DFE804F00306090C0F0003F0A7
:10273C00EF04D7E703F0D704D4E703F0FB04D1E7A9
:10274C0003F0BF04CEE703F07F04CBE76FF0030583
:10275C00D7E7002313B502AA0C4602F8013D01216C
:10276C0002F07AFA78B99DF80730C3F300122270A0
:10277C00C3F3C002A270C3F380026270C3F3801271
:10278C00DB09E270237102B010BD37B50D460DF1B7
:10279C000202F821044602F08BFA70B901AA042156
:1027AC00204602F0A5FA40B9BDF802201AB1019BEF
:1027BC00B3FBF2F32B602B68A36103B030BD037F36
:1027CC0000200B70704737B50D460DF10602202125
:1027DC00044602F06DFA28B9BDF8063023B9236A15
:1027EC002B60207703B030BDDB002B60236201230C
:1027FC002377F7E7052970B504460D46164632D8FF
:10280C00A2B300EB81035A6B01210023681E04283C
:10281C0004D8DFE800F00B14171A210084F82810F4
:10282C002C44E6B984F82860002070BDC2F34F2216
:10283C004421204602F0FEF90028F1D070BD84F846
:10284C002A10EDE784F82B10EAE7FE225B006021EA
:10285C00204602F016FAEFE71B01EF22F7E70123FF
:10286C0084F82830E0E76FF0030070BD11460123B7
:10287C00CCE7002305298DBF6FF00300401890F8BA
:10288C00281013709CBF11701846704770B5431810
:10289C00044693F828000E46154618B904EB81043B
:1028AC00626370BD05291BD8DFE801F0030912141F
:1028BC001616626304EB86046563002070BD442128
:1028CC00C2F34F22204602F0B5F90028F2D070BDB9
:1028DC00E263EFE72264EDE7C2F34F226421F1E7F4
:1028EC006FF00300F3E737B50446154605292CD8DD
:1028FC00DFE801F0030717191B1B436B2B6000204B
:10290C0021E00DF10602442102F0D2F9D8B9BDF84C
:10291C00062053029AB12B60A363012384F829305B
:10292C0011E0C36BEAE7036CE8E70DF106026421E2
:10293C0002F0BEF938B9BDF806305B02DEE7A36BD6
:10294C002B6084F8290003B030BD6FF00300FAE768
:10295C0037B50C460DF107020121054602F07CF952
:10296C0058B99DF8073085F830311B064ABF012352
:10297C0020702370237885F84C3003B030BD2DE9DE
:10298C00F843037C0C4601F8083B0546FFF7FDFEB7
:10299C0040BB207304F110012846FFF714FF08BB5D
:1029AC0004F11401284600F05CFCD8B9064604F189
:1029BC00240705F1280904F118083A46B1B2284653
:1029CC00FFF791FF70B919F8013B0136062E08F894
:1029DC00013B07F10407F0D104F13C012846FFF755
:1029EC00B7FF08B1BDE8F883211D2846BDE8F843C0
:1029FC0001F06ABDF0B5002293B08821054602F0C3
:102A0C0009F94FF47A72A5F852214FF4C8720023D9
:102A1C00A5F85421574A85F8F030C5F85821564A84
:102A2C002B62C5F8D42002A92846FFF7A8FF04465C
:102A3C0080B98DF808008DF8090005F1100702AE79
:102A4C000FCE0FC70FCE0FC70FCE0FC796E80F00D4
:102A5C0087E80F006423A5F834314FF46173A5F8AF
:102A6C0036314FF4FA730126A5F838314FF4206350
:102A7C003246A5F83C31802185F85061284602F099
:102A8C00C9F832460746FF21284602F0C3F8002257
:102A9C00384311460443284602F0BCF864B20443A0
:102AAC000DF107029121284602F0D6F89DF8073067
:102ABC0064B285F83A31044332460021284602F0CC
:102ACC00A9F864B204430022FF21284602F0A2F8C0
:102ADC0064B2044300228021284602F09BF864B2C1
:102AEC002043002440B2002841D1A1B20122284643
:102AFC000134FFF77FFE062CF5D1C0BB85F82A0008
:102B0C0085F82B00024604212846FFF773FE70BBA4
:102B1C00024605212846FFF76DFE40BB01464FF4E7
:102B2C0090122846FFF7B2FE08BB4FF480420121F9
:102B3C002846FFF7ABFED0B94FF40C120221284601
:102B4C00FFF7A4FE98B9024603212846FFF79EFE24
:102B5C0068B9FF22012185F83021284602F05AF885
:102B6C00012385F8323110B9002385F8153113B0E3
:102B7C00F0BD00BF856B0100A4700900012300F0BB
:102B8C0091BD2DE9F0478EB00C460C2304AA1421FC
:102B9C00064602F029F88646002875D19DF81630B5
:102BAC009DF817209DF8181002EB03229DF81930A0
:102BBC009DF81A5003EB01239BB25B0223619DF835
:102BCC0012109DF81B709DF81330A07507EB0527AC
:102BDC0003EB012392B2B6F8525152029BB2206021
:102BEC006060E260A382B5F57A7FBFB29DF81010E9
:102BFC0096F831E10CD007FB05F04FF47A75377F6E
:102C0C0000F5FA7090FBF5F0356A002F40D187B2D1
:102C1C00BEF1000F46D0B8082081B801E0750DF167
:102C2C000F0001900094304601F09EFE864658BB82
:102C3C009DF80FC006F1500584F818C007AF0FCDF2
:102C4C000FC795E80700B4F808A087E80700E37DF4
:102C5C00B4F80A90E1682269B4F814806068ADF8A1
:102C6C0024A0ADF826900A910B92ADF830808DF827
:102C7C0033308DF834C0503607AC08900FCC0FC6EB
:102C8C0097E8070085E8070070460EB0BDE8F087AE
:102C9C00ADB25D432D12AA4207D1BEF1000F0AD18D
:102CAC0048F6E02727810020B8E780B25043551B37
:102CBC00B0FBF5F0ABE742F2B827ACE7F7B5174637
:102CCC000E210DF106021D46064601F0F1FF0A4CDD
:102CDC00BDF8063004EA43433B6050B90DF10602DF
:102CEC000C21304601F0E4FFBDF8063004EA434401
:102CFC002C6003B0F0BD00BF0000FE1F73B590F850
:102D0C00DA300646013B022B0C4633D801AB6A463F
:102D1C000121FFF7D3FF009B0546B3F57F0F03D8C6
:102D2C00019BB3F57F0F06D92DB93CB11249304642
:102D3C0001F02FFC0546284602B070BD0422FF218D
:102D4C00304601F067FF2A4604467021304601F0F8
:102D5C0061FF2A460443FF21304601F05BFF64B259
:102D6C0004432A468021304601F054FF64B22043CC
:102D7C0045B2E0E70025DEE7FB00002037B504464E
:102D8C0001228021057C01F045FF0122FF21204614
:102D9C0001F040FF00222046114601F03BFF94F861
:102DAC003A219121204601F035FF012200212046D5
:102DBC0001F030FF0022FF21204601F02BFF002202
:102DCC008021204601F026FF012D29D004D3032DAC
:102DDC0036D06FF0070014E001220021204601F0EC
:102DEC0019FF01238DF8073058B905469DF80730B7
:102DFC000135DB070ED568B9B5F5FA6F03D16FF065
:102E0C00060003B030BD01460DF10702204601F06B
:102E1C0023FFEBE7B5F5FA6F08BF6FF00600F0E79C
:102E2C0018B929462046FFF769FF022200212046E7
:102E3C0001F0F0FE0028E4D1042384F83231E0E7FD
:102E4C0018B901212046FFF759FF0422EEE738B5E7
:102E5C00057C044625B1204600F073FD28B138BD31
:102E6C00FFF78CFF0028F6D038BD002DFCD10323D2
:102E7C0084F83231F8E773B50646002501220B21A0
:102E8C00304601F0C7FE002204460B21304601F00B
:102E9C00C1FE0DF1070204431321304601F0DCFEA4
:102EAC009DF8073064B2204301355B0740B2EDB2A8
:102EBC0005D0032D08D00028E0D002B070BD032D42
:102ECC0008BF6FF00B00F8E76FF00B00F5E738B5B3
:102EDC000023037404460D46FFF7B9FF50B9294689
:102EEC002046FFF74EFE28B901462046BDE8384083
:102EFC00FFF7C1BF38BDF8B505461C469DF81870E4
:102F0C000E46002940F09B80142A09D1002F08BFDF
:102F1C001022BDE8F84018BF0122842101F07ABECE
:102F2C00152A67D10122FF2101F074FE3246314689
:102F3C000446284601F06EFE32460443FF21284623
:102F4C0001F068FE64B2044301228021284601F09E
:102F5C0061FE64B2044302228521284601F05AFE28
:102F6C0064B204430422FF21284601F053FE64B2EC
:102F7C0032460443CD21284601F04CFE64B2044392
:102F8C001122CC21284601F045FE64B204430722ED
:102F9C00FF21284601F03EFE64B232460443BE21B6
:102FAC00284601F037FE64B204430622FF2128466E
:102FBC0001F030FE64B204430922CC21284601F012
:102FCC0029FE64B232460443FF21284601F022FE5A
:102FDC0064B204430122FF21284601F01BFE64B2B7
:102FEC00044332463146284601F014FE64B22043B5
:102FFC0040B2F8BD042C25D8DFE804F02927030AD9
:10300C000C0002220A21284601F004FE20B1F8BD72
:10301C000322F7E70422F5E7002F0CBF33461023F9
:10302C00EF228421284601F02CFE0028EFD185F8F0
:10303C00DA4001462846BDE8F840FFF71CBF6FF0A8
:10304C000900F8BD6FF00A00F8BD0122DAE7002292
:10305C00D8E7000070B596B005464022002106A8BE
:10306C0002F0B9FA002301212846ADF80E308DF894
:10307C000B308DF80C30049300F0B5FC95F814214E
:10308C00012A06D895F8131140F0AE80202940F2A1
:10309C00AD8003AA04A9284600F01FFB04460028B3
:1030AC0040F09F8095F85031002B40F0A380D5F86C
:1030BC004C11284601F06DFA0446002840F091802E
:1030CC0000942246214604232846FFF714FF0446A9
:1030DC00002840F086800122FF21284601F09AFD4D
:1030EC000DF10E0206468421284601F0E1FD224630
:1030FC000643FF21284601F08DFD76B2304344B2E1
:10310C00002C6ED1BDF80E3006A91B01C5F8D430C9
:10311C002846FFF734FC0446002862D10DF10B0160
:10312C002846FFF7B3FA044600285AD19DF80B3015
:10313C0005F1100406AE85F831310FCE0FC40FCE59
:10314C000FC40FCE0FC496E80F0084E80F000DF1EA
:10315C000B020121284601F07FFD0446002840D1D6
:10316C009DF80B300246014685F830312846FFF7B2
:10317C009FFA0446A8BB024602212846FFF798FA9C
:10318C00044670BB0323014685F832310DF10D0264
:10319C00284601F01FF9044618BB9DF80D300DF1BF
:1031AC000D0285F8E8300121284601F013F9044698
:1031BC00B8B99DF80D3005AA85F8E03003212846F2
:1031CC0000F0F4FE044660B9059B05AAC5F8E4308E
:1031DC000421284600F0EAFE044610B9059BC5F808
:1031EC00DC30204616B070BD0C2950E7284600F0A4
:1031FC0012F953E700495CE70800002013B50C46B0
:10320C000DF10702132101F027FD9DF8073013F093
:10321C00180F18BF6FF0050003F00702226002B010
:10322C0010BD13B590F8DA300C46042B0BD101A964
:10323C00FFF7E4FF019B042B01D1012300E00023E5
:10324C00237002B010BD01AA142101F005FD002865
:10325C00F7D19DF80430DB07EFD42070F1E700F0D4
:10326C003CBA13B50C460DF10602282101F020FDE5
:10327C0058B9FA22BDF80630C3F30B03B3F5006F4F
:10328C0028BFA3F580535343236002B010BDF0B5A3
:10329C004FEAD20E4FF0FF34764600271C6002F046
:1032AC0007024FEACE0C8E4200D207B1F0BD764534
:1032BC000CBF14463C46855D04BF1541EDB215F0BC
:1032CC00010F06D0012764441C6001360CF1080C78
:1032DC00E9E70134082C4FEA5505F0D1F5E7000079
:1032EC00034B800953F82000003018BF01207047B1
:1032FC00B4020020D3088B4238BF012102F0070230
:10330C003FBF9140C25C0A43C25434BF00206FF0EF
:10331C00310070470A460623B02101F047BC0A462B
:10332C000623B02101F060BC2DE9F04F82468B469C
:10333C001D464FF0000887B0129C0DF11809109F24
:10334C00019249F80C4D139B984514D10020149B05
:10335C001C6068B929465046FFF7DCFF044638B9B3
:10336C0004AE31465046FFF7DAFF23469F421DD18B
:10337C0007B0BDE8F08F4B46224639460198FFF75F
:10338C0086FF039E731C0ED0119BF018FFF7A8FF4D
:10339C00584508D1324639462846FFF7ABFF741C16
:1033AC0008F10108CFE76FF03100D0E7E95CF25C7F
:1033BC00914201D10133D9E76FF03100D8E770B5F4
:1033CC00C02288B00E460121044690F8305101F01D
:1033DC0021FCF0B901A92046FFF779FDC8B90122FB
:1033EC00FF21204601F016FC98B93246B621204642
:1033FC0001F05EFC68B90246FF21204601F00AFC90
:10340C0038B92A460121204601F004FC08B984F899
:10341C00305108B070BD70B50E4688B01546FF210E
:10342C000122044601F0F6FB0246A8B94F212046C2
:10343C0001F0F0FB80B92C224E21204601F0EAFB72
:10344C00024648B9FF21204601F0E4FB20B9B42222
:10345C00B621204601F0DEFB002384F8243184F8E9
:10346C00253184F8263184F8273184F8283184F802
:10347C0029311DB31A4602F1B400FFF731FF08B928
:10348C002C2A19D107AB04930292B423062203967B
:10349C008DE80C00294604F5927304F595722046CC
:1034AC00FFF742FF30B9012384F8136184F815311A
:1034BC0084F8145108B070BD0132DCE72A46E1E70C
:1034CC0010B541F001020021044601F0A3FB78B9CC
:1034DC00204600F036FA58B901462046FFF7CBFCDF
:1034EC0030B9024601462046BDE8104001F092BBBF
:1034FC0010BD2DE9F74F4FF0000B89469046FF2188
:10350C00012205461F469DF838A09DF83C608DF8B9
:10351C0007B001F07FFB5A4604465946284601F095
:10352C0079FB5A460443FF21284601F073FB64B231
:10353C00044364B2B9F1000F30D0BAF1000F06D0D9
:10354C000C9ACB21284601F087FB044364B23EB1B0
:10355C000DF10702EE21284601F07EFB044364B214
:10356C000122FF21284601F055FB012204430021D2
:10357C00284601F04FFB64B204430022FF21284689
:10358C0001F048FB64B29DF807300D9A204323F0FC
:10359C00100340B2137003B0BDE8F08FBAF1000F06
:1035AC0006D04246CB21284601F034FB044364B2DA
:1035BC00002ED5D03B468022EE21284601F061FB3F
:1035CC00CCE72DE9F0411746002286B00446884628
:1035DC008DF817201E4643B390F830510122204637
:1035EC00114601F017FB10BB40212046FFF768FF86
:1035FC00E8B9012F1BD10DF117030390019302467B
:10360C0003460297CDF8008039462046FFF771FF3C
:10361C0040B93EB12A460121204601F0FBFA08B917
:10362C0084F8305106B0BDE8F0811D46D6E7002382
:10363C0088F80030ECE72DE9F041044686B0884666
:10364C0017461E4643B390F8305102220121204602
:10365C0001F0E0FA10BB01462046FFF731FFE8B954
:10366C00012F1BD10DF11703029000930246034664
:10367C000397CDF8048039462046FFF73AFF40B94E
:10368C003EB12A460121204601F0C4FA08B984F85B
:10369C00305106B0BDE8F0811D46D6E7002388F80E
:1036AC000030ECE7F8B51E461746002332460446B8
:1036BC0090F83051FFF785FF70B903463246394612
:1036CC002046FFF7B8FF38B92A460121204601F001
:1036DC00A1FA08B984F83051F8BD00232DE9F04F58
:1036EC0091B00891099280F8243180F8253180F846
:1036FC00263180F8273180F8283180F829310122D1
:10370C00FF2104460C930D938DF82C308DF82D3041
:10371C00B0F83C8101F07EFA0546002840F00B81A0
:10372C0002464F21204601F075FA0546002840F06C
:10373C0002812C224E21204601F06CFA054600280D
:10374C0040F0F9800246FF21204601F063FA05465D
:10375C00002840F0F080B422B621204601F05AFA3D
:10376C000546002840F0E78002468021204601F003
:10377C0051FA0546002840F0DE8003460DF12D027B
:10378C000BA92046FFF78EFF0546002840F0D3809A
:10379C00032310AF47F8100D06210393B42304F54F
:1037AC00957B04F592798DE80A0002900146049706
:1037BC004B465A462046FFF7B7FD0546002840F019
:1037CC00BA800DF12E0120460C9EFFF7F8FD054640
:1037DC00002840F0B080BDF82E30434555D984F810
:1037EC00240184F8250184F8260184F8270184F843
:1037FC00280184F8290106F1B400FFF771FD80B1AE
:10380C000622B423049703278DE80C000397029635
:10381C004B465A4601212046FFF786FD28B1054646
:10382C0089E02B2EECD80136E5E70DF12E01204670
:10383C000C9EFFF7C4FD0028F1D1BDF82E30434596
:10384C007DD901204FF0010A22E0D4F82401B4F80C
:10385C0028210E90ADF83C20069F07932AE0069F86
:10386C005FFA8AF0089B1F60099B1870012384F88B
:10387C001531089B1B6884F81331099B1B7884F85D
:10388C00143158E06FF0310555E0002007468246B0
:10389C00BDF82E309845E5D90327A3EB0803D9F8DA
:1038AC000000B9F80420002BB8BF5B420E90ADF8B5
:1038BC003C2007930DAB324606215846FFF7E7FC38
:1038CC000D9E731CDED006F1B400FFF709FD5045C8
:1038DC00C6D17B1C3246062148460693FFF70AFDEB
:1038EC0000289CD1494620460136FFF713FD0028DD
:1038FC0095D10DF12E012046FFF761FD00288ED1E8
:10390C00BDF82E20A2EB0803002BB8BF5B429045FC
:10391C009BD2079A9342A2D90EA92046FFF7FAFC34
:10392C000346BDF83C200E98A4F82821C4F82401C5
:10393C00002B95D01D46284611B0BDE8F08F0746E8
:10394C0080E7002373B506464FF4FA6402AD05F820
:10395C00013D29463046FFF764FC58B99DF8073005
:10396C00012B07D0013C03D0304601F0E7F9F0E71A
:10397C006FF0060002B070BD01464FF0804210B5EA
:10398C008A4202D8002012B910BD9208F8E78418B8
:10399C00A1424FEA500326BFD018091B18469208C3
:1039AC00F1E773B500228321064601F033F9044692
:1039BC0080B94FF4FA650DF107028321304601F00E
:1039CC004BF99DF80730044623B918B9013DF2D1E3
:1039DC006FF0060401228321304601F01BF92043CD
:1039EC0040B202B070BD2DE9F04F4FF0000990F8D5
:1039FC00F06091B0072E04468846CDF81C90CDF8A7
:103A0C00209000F098820122802101F003F901221C
:103A1C000746FF21204601F0FDF84A460743494678
:103A2C00204601F0F7F87FB207430622FF2120461B
:103A3C0001F0F0F87FB207430DF115028321204607
:103A4C0001F00AF99DF815207FB2074342F00402F9
:103A5C008321204601F0DEF87FB207430722FF21C5
:103A6C00204601F0D7F87FB201228121074320467E
:103A7C0001F0D0F87FB20743204601F05FF97FB226
:103A8C00074301228021204601F0C4F87FB238435D
:103A9C0018F0010A45B200F02382F30700F12382EB
:103AAC006B229421204601F0B5F807462046FFF71B
:103ABC0078FF3843054306AA9021204601F018F9F7
:103ACC006DB20543069824229421C0F3062BC0F353
:103ADC00C039204601F09EF86DB205432046FFF731
:103AEC0060FF6DB2054306AA9021204601F000F953
:103AFC00069B6DB21A0E8DF824201A0C8DF8252019
:103B0C001A0A942105438DF82620204625228DF88B
:103B1C00273001F07FF86DB205432046FFF741FFD7
:103B2C006DB2054306AA9021204601F0E1F8069BF0
:103B3C006DB21A0E05431B0C6DB28DF828208DF852
:103B4C00293018F00203029300F0DB8016F0020714
:103B5C0040F0D78002229421204601F05BF80190BE
:103B6C002046FFF71EFF019B0DF11602184305437B
:103B7C009021204601F070F86DB27B229421054310
:103B8C00204601F047F86DB205432046FFF709FFC8
:103B9C006DB205430DF117029021204601F05CF83F
:103BAC006DB2772294210543204601F033F86DB2B3
:103BBC0005432046FFF7F5FE6DB2054306AA90219A
:103BCC00204601F095F8069B6DB25A0E8DF82C200C
:103BDC00C3F386428DF82D20C3F3C6228DF82E2018
:103BEC00C3F30612DB0003F07803942105438DF830
:103BFC002F20204678228DF8153001F00BF86DB28D
:103C0C0005432046FFF7CDFE6DB2054306AA902171
:103C1C00204601F06DF8069B9DF815206DB202EB65
:103C2C0053728DF83020C3F386528DF83120C3F3D4
:103C3C00C6328DF83220C3F306228DF83320C3F33D
:103C4C0046029B0103F04003942105438DF8342078
:103C5C00204679228DF8153000F0DCFF6DB205435B
:103C6C002046FFF79EFE6DB2054306AA9021204622
:103C7C0001F03EF8069B9DF815206DB202EB9362A5
:103C8C008DF83520C3F3C6428DF83620C3F30632C7
:103C9C008DF83720C3F346129B0003F07C0394216C
:103CAC0005438DF8382020467A228DF8153000F027
:103CBC00B1FF6DB205432046FFF773FE6DB20543AD
:103CCC0006AA9021204601F013F8069B9DF81520BA
:103CDC006DB202EB93728DF83920C3F3C6528DF896
:103CEC003A20C3F3064205438DF83B20C3F346222A
:103CFC00C3F386036DB28DF83C208DF83D308DF802
:103D0C003E7018F00403019300F0EF80770700F188
:103D1C00EC807B229421204600F07CFF0746204655
:103D2C00FFF73FFE3843054307AA9021204600F0D9
:103D3C00DFFF6DB27C2294210543204600F06AFF20
:103D4C006DB205432046FFF72CFE6DB2054308AA61
:103D5C009021204600F0CCFF6DB2732294210543D4
:103D6C00204600F057FF6DB205432046FFF719FEC1
:103D7C006DB2054306AA9021204600F0B9FF6DB242
:103D8C007422942105432046069F00F043FF6DB238
:103D9C0005432046FFF705FE6DB2054306AA9021A8
:103DAC00204600F0A5FF3F029DF81B306DB2752236
:103DBC0094210543BFB220461F4300F02BFF6DB288
:103DCC0005432046FFF7EDFD6DB2054306AA902191
:103DDC00204600F08DFF069B6DB21B029BB2762233
:103DEC00942105432046039300F014FF6DB2054364
:103DFC002046FFF7D6FD6DB2054306AA902120465A
:103E0C0000F076FF6DB29DF81B20039B05436DB24D
:103E1C001343002281212046039300F0FBFE06226F
:103E2C000543FF21204600F0F5FE6DB205430DF170
:103E3C0015028321204600F00FFF9DF815206DB26E
:103E4C00054302F0FB028321204600F0E3FE6DB235
:103E5C0005430122FF21204600F0DCFE6DB2054334
:103E6C0001220021204600F0D5FE6DB20543002250
:103E7C00FF21204600F0CEFE6DB2054300228021CA
:103E8C00204600F0C7FE6DB205436DB2039B1DBB0F
:103E9C00BAF1000F01D0F0072AD5029A002A38D1C6
:103EAC00019AAAB1720713D4079A7F02C4F8182199
:103EBC00089AC4F82071C4F81C213BB1A3F5C85270
:103ECC004FF47A7353431B095B429BB21BB2E36002
:103EDC0046EA080684F8F060284611B0BDE8F08F79
:103EEC00D146D3462DE6CB462BE600273B4690E742
:103EFC002A4684F813B184F8149104F595710DF1E8
:103F0C00240E12F80E000132062A01F8010BF8D12A
:103F1C00C3E7B107C4D49DF816200BA984F8F1208F
:103F2C009DF8172004F1F30084F8F220029301F0BD
:103F3C005AFB029BB4E74D46CEE750B10023013843
:103F4C0030F0FF019AB203F1010303D100EB022020
:103F5C0080B270474008F3E7C3B2000A03FA00F0DE
:103F6C000130704708484FF47A7342434FF4FA60BB
:103F7C0002F5FA72B2FBF0F0B2FBF3F203FB0100B4
:103F8C00B0FBF2F0704700BF002F3A004FF47A708C
:103F9C00054B5A4302F5FA72B2FBF0F24A4302F5B2
:103FAC00FA72B2FBF0F07047002F3A002DE9FF4196
:103FBC0000240229064690468DF80340ADF80440D3
:103FCC001DD80DF102022146FEF770FB054630B9F3
:103FDC000DF103024621304600F03EFE05469DF8E9
:103FEC000300FFF7B9FF9DF8022081B23046FFF7BE
:103FFC00CDFFC8F80000284604B0BDE8F0810329C5
:10400C0018D10DF102022146FEF750FB054600289F
:10401C004AD101460DF102023046FEF747FB054638
:10402C0028B901AA5121304600F042FE0546BDF8E0
:10403C000400D6E7042939D102A9FEF78AFB9DF8C2
:10404C000B1069B30DF1020221463046FEF72EFB30
:10405C000546074630BB01AA5121304600F028FE28
:10406C000546BDF80400FFF777FF84B29DB90DF14A
:10407C00020201213046FEF719FB054690B90DF1FD
:10408C0006027121304600F013FE0546BDF806000D
:10409C00FFF762FF87B23C1B9DF80220A1B2A5E797
:1040AC000C46E4E70027F6E72046A2E72046254623
:1040BC009FE7F0B5022985B0054617461ED80DF1CD
:1040CC0005020021FEF7F2FA0446A0B99DF805207E
:1040DC0039462846FFF746FF83B2B3F5807F8EBF83
:1040EC00FF2200F1FF32D2B2A5F8D8204621284693
:1040FC0000F090FD0446204605B0F0BD03291FD109
:10410C000DF105020021FEF7D1FA9DF80520394684
:10411C0004462846FFF726FF80B2FFF70EFF024643
:10412C00ADF80600A5F8D800002CE4D151212846A2
:10413C0000F080FD04460028DDD1C5F8E470DAE714
:10414C00042939D102A9FEF704FB9DF80B60B6B126
:10415C000DF1050200212846FEF7A8FA04460028B6
:10416C00C9D10DF106025121284600F0A1FD0446EB
:10417C00BDF80600FFF7F0FE002CBCD186B20DF1A5
:10418C00050201212846FEF791FA04460028B2D117
:10419C009DF8052039462846FFF7E4FE3044FFF72A
:1041AC00CCFE71210246284600F044FD044600284E
:1041BC00A1D1C5F8DC709EE76FF003049BE72DE9F5
:1041CC00FF41002312F001070546884616468DF87C
:1041DC00033040F0E580002943D1A2F10C03062BFB
:1041EC0000F2DE800C2A78D11822572100F012FD43
:1041FC0008225621284600F00DFD00286AD17408CB
:10420C00013CE4B202AA03212846FFF7CFFEB0B965
:10421C0003AA02212846FFF7C9FE80B92246502185
:10422C00284600F0F7FC50B9029A03212846FFF704
:10423C0040FF20B9039A02212846FFF73AFF85F880
:10424C00E860002846D169692846FEF72BFA002859
:10425C0040D1024601230DF103012846FFF7EBF98B
:10426C0038E0012940F09280A2F10803062B00F2FD
:10427C009780082A3DD11022482100F0CBFC324611
:10428C004721284600F0C6FC02220446322128466B
:10429C0000F0C0FC0C2204433021284600F0BAFC8C
:1042AC0064B204434246FF21284600F0B3FC30229E
:1042BC0064B2044364B23021284600F0ABFC3A46A9
:1042CC000443FF21284600F0A5FC64B2204340B211
:1042DC00002868D004B0BDE8F0810E2A01D130224C
:1042EC0083E7102A01D140227FE7122A4ED15022B7
:1042FC007BE70A2A20D12822482100F08BFC0822D7
:10430C004721284600F086FC032204463221284629
:10431C0000F080FC0922044364B23021284600F0EE
:10432C0079FC42460443FF21284600F073FC64B23A
:10433C00044364B22022BEE70C2A12D13822482151
:10434C0000F068FC08224721284600F063FC032299
:10435C0004463221284600F05DFC044364B2082276
:10436C00DBE70E2A12D14822114600F053FC08223A
:10437C004721284600F04EFC0322044632212846F1
:10438C0000F048FC044364B20722C6E77408013C01
:10439C00E4B2B8F1000F3FF435AFB8F1010F05D01E
:1043AC006FF0030096E77408013CE4B201AA042103
:1043BC002846FFF7FBFD50B922467021284600F035
:1043CC0029FC20B9019A04212846FFF772FE85F8D2
:1043DC00E06036E713B5144621B101290FD06FF018
:1043EC0003000AE050210DF1070200F035FC20B962
:1043FC009DF8073001335B00237002B010BD0DF146
:10440C0007027021F1E700234FF4FA62F0B585B092
:10441C008DE80C0044F61F63994206460F4604D8FB
:10442C006FF00305284605B0F0BD02A9FEF791F91F
:10443C0005460028F6D19DF80830A7F636342BB97E
:10444C009DF8093013B99DF80A30FBB16A46022178
:10445C003046FFF7ABFDA8BB9DF808302BB1009B95
:10446C0003F24E239C42DBD9E41A9DF80A3033B98F
:10447C009DF8093053B1009B03F5257303E0009BB5
:10448C0003F2B2235B00A342CAD2E41A9DF80B30AC
:10449C005BB101AA03213046FFF788FD019B03F5B0
:1044AC002573A342BCD268B9E41A9DF80C30002BDA
:1044BC00B8D0A4F2262204213046FFF7FAFD77612A
:1044CC000546AFE70546ADE74FF4FA6370B586B025
:1044DC0002930023039340F636330C460B6004A979
:1044EC000646FEF736F90546002836D19DF8103001
:1044FC002BB99DF8113013B99DF81230CBB102AA2B
:10450C0002213046FFF752FD002840D19DF81030B3
:10451C002BB1029B03F24E222368134423609DF8B7
:10452C001230EBB1029B03F2B222236803EB42037D
:10453C0023609DF813305BB103AA03213046FFF7CB
:10454C0035FD039B03F52572236813442360F0B9F2
:10455C009DF8143073B923687361284606B070BD9A
:10456C009DF81130002BE4D0029B03F525722368D3
:10457C001344DDE701AA04213046FFF717FD019B28
:10458C0003F226222368134423600028E3D0054657
:10459C00E3E7F7B5002206460D46104601AFAB5CCB
:1045AC0005EB020E03B108B103B0F0BDFF2B02F115
:1045BC0001042CD12B5D941C032B3AD8DFE803F0BB
:1045CC00020C151E295D9EF80330141D03EB01230C
:1045DC00A6F834312246E2E7295D9EF80330141D1B
:1045EC0003EB0123A6F83631F4E7295D9EF803307E
:1045FC00141D03EB0123A6F83831EBE7295D9EF877
:10460C000330141D03EB0123A6F83C31E2E7042B25
:10461C000FD8295D0232984205DBD41830463A4651
:10462C0000F0C4FAD6E70EEB0004A4783C54013039
:10463C00F1E76FF00300CDE7002373B50E4613606E
:10464C000DF1070105461446FEF7B9F840B99DF87F
:10465C0007302BB1B28A2B6A534380331B0A236079
:10466C0002B070BD13B5CB681446136001AAFFF7F6
:10467C00E3FF18B92368019A1344236002B010BDFC
:10468C00F8B5B0F85441D0F85851079E65438035C1
:10469C002D0A089F654352B1540804EB8124B4FBE6
:1046AC00F2F404EB4404644304F50044220C069C2D
:1046BC0006F500415C4304F50044240C04FB04F3B0
:1046CC000624090C0331B1FBF4F1C1EBC101B1F5C6
:1046DC00803F3FBF0336B6FBF4F6C6EBC60606F5C5
:1046EC0000413ABF0C0C04FB04F1174903EB5704CF
:1046FC000C44B4FBF7F4FE23A4037F34B4FBF3F4B3
:10470C004FF47A76544304F5FA74B4FBF6F405F1DD
:10471C002000240104F5FA748009FFF72DF9B4FB8D
:10472C00F6F6074636B14FF4FA63B4FBF3F42C44B7
:10473C00B4FBF6F63046FFF71FF9099B874294BF8E
:10474C001F6018600020F8BD0000F0FF2DE9F04F4D
:10475C00054689468FB00993036A08920C93CB687F
:10476C000DAA0E690A93FFF77DFF0CAA494628464D
:10477C00FFF762FF834698BBD5F8DC3095F8E04034
:10478C001946224628460593FFF7ECFB4FF47A783E
:10479C00D5F8E43095F8E8201946074628460693E4
:1047AC00FFF7E0FB0D9B082C08FB03F40C9A04F5B7
:1047BC00004403F180030CBF022103210B925FEA3A
:1047CC00144E23F0FF0207920D92DFF894A10BD147
:1047DC00089BC3F800A0099BC5F840A1C3F800B022
:1047EC0058460FB0BDE8F08F3844C002414301F584
:1047FC00FA71B1FBF8F140F277674F4307F5FA779E
:10480C00B7FBF8F708FB06F6DFF858B11B0A06EA07
:10481C000B06B6FBFEFE7B434F4E80331B0A08BFD4
:10482C0001230C20B64528BFB6464FF416765843E4
:10483C0006FB0EF6FFF7A0F80B9A410008FB02F0FE
:10484C00B0F5481F28BF4FF4481004EA0B0B0BF5CA
:10485C00FA7BABEB4000B0FBF8F0BBFBF8F80002C6
:10486C00B0FBF8F899F81800B9F80830002870D1A6
:10487C003A4C4FEA08285C4341F25C23B4FBF3F456
:10488C00C8F5803804FB08F404F50044240C04F546
:10489C00803464086443A40B4FF4487806F5004355
:1048AC0008FB04F01B0C5B4300F50040000C00FB04
:1048BC0000300B91FFF760F84FEA0049642009F1D2
:1048CC003209B9FBF0F90B9940F6B533B9FBF1F9A4
:1048DC0041F2883103FB091942F21071B9FBF1F96D
:1048EC004FF4FA614FF47A7B069A059BB9F5704F39
:1048FC00134403F5FA73B3FBF1F1B3FBFBF001F5D1
:10490C00C811B1FBF0F028BF4FF47049FFF734F831
:10491C00000200F5FA70B0FBFBF0404309FB090004
:10492C00FFF72AF80BFB00F2524528BF5246089BB2
:10493C0007991A60099BC5F84021039302970196C9
:10494C00CDF8008023460A9A2846FFF799FE834645
:10495C0046E74FF480349FE7666666009A99060036
:10496C00AE878F020000FFFF2DE9F04F8BB0019254
:10497C004FF2A1024FF000094FEAD10A0AF00F08DA
:10498C0022FA08F29B46494602F001030DF10E0291
:10499C000546159F8DF80E908DF80F908DF81090A0
:1049AC008DF81190ADF81290CDF824900093FDF78E
:1049BC0060FF9DF80E400646D4B1002840F0A5805B
:1049CC0009AB05AA14992846FFF7C0FE002840F051
:1049DC009E80149A099B01465381284606AAFDF72E
:1049EC0082FF069C24B1059B9C422CBF0024012411
:1049FC0020B904AA02212846FDF73BFF9DF8109030
:104A0C00B9F1000F28D0002840F0858007AA0221B8
:104A1C002846FDF768FF88B90122FF21284600F0DF
:104A2C00F9F858B90DF11202B621284600F040F9F8
:104A3C0020B90246FF21284600F0ECF8BDF81230F0
:104A4C005A02079BC5F84821002B62D09A4294BFAA
:104A5C004FF000094FF0010928B90DF111020321A3
:104A6C002846FDF706FF9DF811609EB100287CD109
:104A7C00BBF1000F03D0019B1E02B6FBFBFB08AA87
:104A8C0003212846FDF72FFF089E1EB1B3452CBF0E
:104A9C000026012620B9009B002B3FD0FF223A7044
:104AAC003A780AB9149B5A810DF10F02012128465C
:104ABC00FDF7DFFE30BB9DF80E20002A08BF012455
:104ACC00B8F1040F17BF9DF80F200122B2FA82F241
:104ADC00520985F82F209DF8102004F00104002ABB
:104AEC0008BF4FF0010909F0010385F830309DF83B
:104AFC00113085F82E40002B08BF012606F0010668
:104B0C0085F831600BB0BDE8F08F4C4676E7344643
:104B1C0074E79946A0E74FF00009A4E708F1FF32CB
:104B2C00022A01D80522BAE7B8F1060F02D0B8F173
:104B3C00090F01D10422B2E70AF00D0ABAF1080FED
:104B4C0002D0B9F1010F01D10322A8E7B8F1040F8B
:104B5C0001D0012E01D10222A1E7012C01D10122A9
:104B6C009DE7002226463A709AE7002698E713B58F
:104B7C0002F10A0390F860410093D0F85C0193B203
:104B8C000A462146FBF782FE02B010BD13B502F1B6
:104B9C000A0390F860410093D0F85C0193B20A4686
:104BAC0044F00101FBF740FF02B010BD3F2BF8B5FC
:104BBC000F46064611461C4611D80A4D1A46284681
:104BCC0000F8017B00F0FCFC621C29463046FFF724
:104BDC00CEFF00280CBF00206FF01300F8BD6FF063
:104BEC000300F8BD60040020F7B502AC04F8011D09
:104BFC0016462146012205461F46FFF7B8FF28B985
:104C0C003A4631462846FFF7C1FF08B16FF0130052
:104C1C0003B0F0BD08B5064B19705A701946022244
:104C2C00FFF7A5FF002814BF6FF01300002008BD8C
:104C3C006004002008B5074B1970110A59709A705E
:104C4C0019460322FFF793FF002814BF6FF01300DF
:104C5C00002008BD6004002037B502AB03F8011D2D
:104C6C001546194601220446FFF781FF28B9012297
:104C7C0029462046FFF78AFF08B16FF0130003B0F6
:104C8C0030BDF7B515460DF1070206460F461C461A
:104C9C00FFF7E2FF48B99DF8072039462A40224326
:104CAC0030468DF80720FFF7B5FF03B0F0BD0000CC
:104CBC0073B502AB03F8011D1546194601220646D1
:104CCC00FFF755FF18B16FF0130002B070BD074C21
:104CDC00022221463046FFF759FF0028F3D12278F3
:104CEC00637803EB02232B80EFE700BF6004002006
:104CFC0073B502AB03F8011D154619460122064691
:104D0C00FFF735FF18B16FF0130002B070BD0A4CFD
:104D1C00042221463046FFF739FF0028F3D163788F
:104D2C0022781B0403EB0263E2781344A27803EBB2
:104D3C0002232B60E9E700BF6004002008B50220C5
:104D4C00FBF746FA002008BD10222DE9F04188B08F
:104D5C000DEB0200002100F03EFC2B4BDFF8B08085
:104D6C009A692A4C42F010029A619A69404602F004
:104D7C0010020092009A9A694FF4005142F02002FE
:104D8C009A619A69012602F020020192019A9A69AD
:104D9C00002542F004029A619A69022702F004028B
:104DAC000292029A9A6942F008029A619B69002267
:104DBC0003F008030393039BFBF7B4FB002220468C
:104DCC003221FBF7AFFB4FF4005304A94046049388
:104DDC00059606950797FBF7C3FA122304A92046FC
:104DEC000493059606950797FBF7BAFA20230493CC
:104DFC00032304A92046059606950793FBF7B0FA02
:104E0C0008B0BDE8F08100BF00100240000801406E
:104E1C000010014008B50C480C4BDFF834E04FF49F
:104E2C00804280E80840002302618360C3604361D4
:104E3C008361C3610362FBF785FC18B1BDE80840D0
:104E4C0000F070B908BD00BFA00400200054004061
:104E5C00A086010010B5044686B01022002102A8DD
:104E6C0000F0B9FB2268194B9A422CD1184C02A9BC
:104E7C00A369184843F00803A361A36903F008036E
:104E8C000093009BC02302931223039303230593E7
:104E9C00FBF766FA0022E369114643F40013E36161
:104EAC00E3691F2003F400130193019BFBF7B4F992
:104EBC001F20FBF7E5F9002220201146FBF7ACF987
:104ECC002020FBF7DDF906B010BD00BF00540040F8
:104EDC0000100240000C014010B590B028220021B7
:104EEC0006A800F078FB0021142201A800F073FB47
:104EFC004FF480330122022407930E934FF4E013F6
:104F0C0006A806920A920F930D94FCF7B3FC0F239C
:104F1C000193002303934FF48063214601A802946C
:104F2C0004930593FCF780FE10B010BD002313B55D
:104F3C00174C184A84F860010220C4F85C210193D4
:104F4C00C4F86831FBF744F9019A22B9882120464C
:104F5C00FFF760FE01900DF10202C0210C48FFF733
:104F6C00A7FE0190019A0C4B72B94EF6AA62BDF8DD
:104F7C000210914209BF1A68012201321A600ABF5D
:104F8C0001220192C4F86821186802B010BD00BF5C
:104F9C00C4020020A0040020580400202DE9F34195
:104FAC002F4C0546D4F86831002B4DD02046FEF727
:104FBC0051F80DF102020DF101012046FDF7DEFD65
:104FCC000DF1030201A92046FEF749F90021204604
:104FDC00FDF74CFB012200212046FDF70BFC0122C2
:104FEC0020461146FDF706FC022D30D81D4B33F838
:104FFC0015201D4B53F825801C4B53F825701C4B6A
:10500C005E5D1C4B5D5D01211548FDF73FFC424682
:10501C0000211348FDF73AFC39461148FDF742FBD5
:10502C00324600210E48FDF73FFB2A4601210C4871
:10503C00FDF73AFB0DF102020DF101010848FDF7F5
:10504C009DFD0123C4F8703102B0BDE8F0810A2542
:10505C000E2648F2E8074FF490184FF48042D2E73E
:10506C00C40200202C560008345600084056000894
:10507C004C5600084F560008F8B5FBF785F800248D
:10508C00FFF72AFFFFF760FE00F044F900F0BCF8D0
:10509C0000F098F900F0B2F9FFF7BCFE1C4EE5B237
:1050AC002846FFF743FF306058B31A4B83F8605122
:1050BC000023194D4FF47A702B70FBF789F81548C3
:1050CC00FDF798FC154C164F20601248FDF7C2FFF7
:1050DC00104E20602878FFF761FF39463046FDF707
:1050EC00F6FE20606420FBF773F82B786BB1012B74
:1050FC000CBF0223002330462B70FDF787FA20608B
:10510C00E8E70134FF2CCAD1D2E70123F3E700BF53
:10511C0058040020C4020020F4040020F8040020ED
:10512C00FC040020704700000E4B82B09A6942F0DC
:10513C0001029A619A6902F001020092009ADA69FE
:10514C0042F08052DA61DB69074A03F08053019325
:10515C00019B536823F0E06343F00073536002B08B
:10516C00704700BF00100240000001407047FEE78E
:10517C00FEE7FEE7FEE7704770477047FBF716B88F
:10518C000148FCF789BE00BF180500200148FBF759
:10519C00ABBE00BFA00400200148FCF7D1BA00BF91
:1051AC00A00400200148FDF789B900BFD8050020F4
:1051BC000148FDF783B900BF980500200F4B1A6812
:1051CC0042F001021A6059680D4A0A405A601A6886
:1051DC0022F0847222F480321A601A6822F480223F
:1051EC001A605A6822F4FE025A604FF41F029A6049
:1051FC004FF00062034B9A60704700BF00100240F2
:10520C000000FFF800ED00E07FB51022002102A89D
:10521C0000F0E1F900231448144A009380E80C00D4
:10522C0040F29F5201938360C26003618361FCF77B
:10523C000DFF08B1FFF776FF4FF4805302A90A481F
:10524C000293FCF7CFFF08B1FFF76CFF202200237D
:10525C00694605488DE80C00FDF758F808B1FFF7D2
:10526C0061FF07B05DF804FB180500200004004046
:10527C00036807B5B3F1804F0DD103F50433DA6938
:10528C0042F00102DA61DB6903F001030093009B39
:10529C0003B05DF804FB0B4A9342F9D10A4B1D2075
:1052AC00DA6942F00202DA610022DB69114603F08E
:1052BC0002030193019BFAF7AFFF1D20FAF7E0FF01
:1052CC00E6E700BF000400400010024010B50446A1
:1052DC0086B01022002102A800F07DF92368B3F1FA
:1052EC00804F13D103F504339A6902A942F00402EA
:1052FC009A619B69064803F004030193019B0C23FC
:10530C000293022303930593FBF72AF806B010BD12
:10531C000008014010B58EB01022002103A800F047
:10532C005AF900241C2221460DEB02000194029430
:10533C0000F051F903234FF08042214880E80C0023
:10534C004FF6FF738460C36004618461FCF77EFEDA
:10535C0008B1FFF7E7FE4FF4805303A918480393F5
:10536C00FCF740FF08B1FFF7DDFE1548FCF788FE9F
:10537C0008B1FFF7D7FE002401A91148019402944B
:10538C00FCF7C4FF08B1FFF7CDFE6023082207A984
:10539C000B480793089409940B94FCF7B7FE08B1DB
:1053AC00FFF7C0FE0C2207A90548FCF7AFFE08B1B9
:1053BC00FFF7B8FE0248FFF789FF0EB010BD00BF23
:1053CC005805002008B54FF4165E0A480A4B0C220B
:1053DC0080E80840002342618360C36003618361FD
:1053EC00C361FCF7FBFF18B1BDE80840FFF79ABE9C
:1053FC0008BD00BFD80500200038014008B54FF4A7
:10540C00E13E0A480A4B0C2280E808400023426126
:10541C008360C36003618361C361FCF7DFFF18B174
:10542C00BDE80840FFF77EBE08BD00BF9805002010
:10543C0000480040102210B5044688B00DEB020065
:10544C00002100F0C8F82368334A934231D1334B22
:10545C0004A99A69324842F480429A619A690024FC
:10546C0002F480420092009A9A6942F004029A6116
:10547C009B6903F004030193019B4FF400730493A5
:10548C000223059303230793FAF76AFF4FF4806313
:10549C0004A92348049305940694FAF761FF252088
:1054AC0022462146FAF7B8FE2520FAF7E9FE08B0A5
:1054BC0010BD1C4A9342FAD1184B04A9DA691A4858
:1054CC0042F48022DA61DA69002402F4802202922A
:1054DC00029A9A6942F008029A619B6903F00803E8
:1054EC000393039B4FF480630493022305930323DC
:1054FC000793FAF735FF4FF4006304A90A480493A5
:10550C0005940694FAF72CFF272022462146FAF739
:10551C0083FE2720C9E700BF00380140001002407D
:10552C000008014000480040000C0140002103E04D
:10553C000B4B5B58435004310A480B4B42189A42B0
:10554C00F6D30A4A02E0002342F8043B084B9A4285
:10555C00F9D3FFF733FE00F00FF8FFF78DFD70471E
:10556C0074560008000000203C0400203C0400207D
:10557C0018060020FEE7000070B500250C4E0D4CFF
:10558C00A41BA410A54209D100F036F800250A4E40
:10559C000A4CA41BA410A54205D170BD56F82530A9
:1055AC0098470135EEE756F8253098470135F2E774
:1055BC006C5600086C5600086C56000870560008B3
:1055CC0010B5431E0A44914200D110BD11F8014B95
:1055DC0003F8014FF7E703460244934200D17047AA
:1055EC0003F8011BF9E7034611F8012B03F8012B13
:1055FC00002AF9D170470000F8B500BFF8BC08BC10
:10560C009E467047F8B500BFF8BC08BC9E46704774
:10561C0002030405060708090A0B0C0D0E0F1010E7
:10562C00991900400040000000003C0000002000E0
:10563C0000001200E8800000204E0000400D030026
:10564C00120E0E0E0A0A00000000000000000102FB
:10565C00030406070809000000000102030400000F
:04566C003101000800
:045670000D01000820
:10567400010000001000000001FF0101000001FF13
:10568400000109000110000111000124010125FF9E
:1056940001750001FF01014E2C0148000130200179
:1056A400FF000130090154000131040132030140BB
:1056B40083014625016000012700015006015100C5
:1056C4000152960156080157300161000162000140
:1056D40064000165000166A001FF01012232014757
:1056E400140149FF014A0001FF00017A0A017B000D
:1056F40001782101FF010123340142000144FF012B
:105704004526014605014040010E0601201A0143C9
:105714004001FF0001340301354401FF010131045C
:10572400014B09014C05014D0401FF000144000136
:1057340045200147080148280167000170040171F0
:10574400010172FE01760001770001FF01010D01E4
:1057540001FF000180010101F801FF01018E010137
:10576400000101FF0001800000000001FF00018032
:105774000101FF0101000001FF01014F0201FF0EC1
:1057840001000301018401020A0103030104080169
:1057940005C801060301078D0108080109C6010AAD
:1057A40001010B02010C00010DD5010E18010F12AD
:1057B4000110010111820112000113D50114180115
:1057C400151301160301178601180A011909011A94
:1057D40008011BC2011C03011D8F011E0A011F06C3
:1057E4000120010121020122000123D50124180115
:1057F40025220126010127820128000129D5012A39
:1058040018012B0B012C28012D78012E28012F9132
:1058140001300001310B01320001330B013400016E
:1058240035A10136000137A0013800013904013ADD
:1058340028013B30013C0C013D04013E0F013F793E
:1058440001402801411E01422F0143870144000108
:10585400450B01460001470B0148000149A7014AD5
:1058640000014BA6014C00014D04014E01014F0003
:1058740001500001518001520901530801540101F2
:10588400550001560F015779015809015905015A6C
:1058940000015B60015C05015DD1015E0C015F3CB0
:1058A4000160000161D001620B01630301642801FE
:1058B400651001662A01673901680B016902016AF2
:1058C40028016B10016C2A016D61016E0C016F00DF
:1058D40001700F01717901720001730B01740001F1
:1058E400750B0176000177A10178000179A0017A96
:1058F40000017B0401FF0401791D017B2701960E41
:105904000197FE0198030199EF019A02019B44015A
:10591400730701700101FF0101000101FF00000094
:10592400000000000A000000050000000000000064
:10593400050000000000000000000000000000005E
:105944000000000000000000000000000000000053
:105954000000000000000000000000000000000043
:105964000000000000000000000000000000000033
:105974000000000000000000000000000000000023
:105984000000000000000000000000000000000013
:105994000000000000000000000000000000000003
:1059A40000000000000000000000000000000000F3
:1059B40000000000000000000000000000000000E3
:1059C40000000000000000000000000000000000D3
:1059D40000000000000000000000000000000000C3
:1059E40000000000000000000000000000000000B3
:1059F40000000000000000000000000000000000A3
:105A04000000000000000000000000000000000092
:105A14000000000000000000000000000000000082
:105A24000000000000000000000000000000000072
:105A34000000000000000000000000000000000062
:105A44000000000000000000000000000000000052
:105A54000000000000000000000000000000000042
:105A64000000000000000000000000000000000032
:105A74000000000000000000000000000000000022
:105A84000000000000000000000000000000000012
:105A9400A00400200000000000000000000000003E
:0C5AA40000000000000000000024F400DE
:040000050800553961
:00000001FF
